{"abi":[{"type":"constructor","inputs":[],"stateMutability":"nonpayable"},{"type":"fallback","stateMutability":"payable"},{"type":"receive","stateMutability":"payable"},{"type":"function","name":"balances","inputs":[{"name":"","type":"address","internalType":"address"}],"outputs":[{"name":"","type":"uint256","internalType":"uint256"}],"stateMutability":"view"},{"type":"function","name":"deposit","inputs":[],"outputs":[],"stateMutability":"payable"},{"type":"function","name":"getContractBalance","inputs":[],"outputs":[{"name":"","type":"uint256","internalType":"uint256"}],"stateMutability":"view"},{"type":"function","name":"getUserBalance","inputs":[{"name":"user","type":"address","internalType":"address"}],"outputs":[{"name":"","type":"uint256","internalType":"uint256"}],"stateMutability":"view"},{"type":"function","name":"owner","inputs":[],"outputs":[{"name":"","type":"address","internalType":"address"}],"stateMutability":"view"},{"type":"function","name":"totalDeposits","inputs":[],"outputs":[{"name":"","type":"uint256","internalType":"uint256"}],"stateMutability":"view"},{"type":"function","name":"transferOwnership","inputs":[{"name":"newOwner","type":"address","internalType":"address"}],"outputs":[],"stateMutability":"nonpayable"},{"type":"function","name":"withdraw","inputs":[{"name":"amount","type":"uint256","internalType":"uint256"}],"outputs":[],"stateMutability":"nonpayable"},{"type":"event","name":"Deposit","inputs":[{"name":"user","type":"address","indexed":true,"internalType":"address"},{"name":"amount","type":"uint256","indexed":false,"internalType":"uint256"}],"anonymous":false},{"type":"event","name":"OwnershipTransferred","inputs":[{"name":"previousOwner","type":"address","indexed":true,"internalType":"address"},{"name":"newOwner","type":"address","indexed":true,"internalType":"address"}],"anonymous":false},{"type":"event","name":"Withdrawal","inputs":[{"name":"user","type":"address","indexed":true,"internalType":"address"},{"name":"amount","type":"uint256","indexed":false,"internalType":"uint256"}],"anonymous":false},{"type":"error","name":"InsufficientBalance","inputs":[]},{"type":"error","name":"NotOwner","inputs":[]},{"type":"error","name":"TransferFailed","inputs":[]},{"type":"error","name":"ZeroAddress","inputs":[]},{"type":"error","name":"ZeroAmount","inputs":[]}],"bytecode":{"object":"0x608060405234801561000f575f80fd5b505f80546001600160a01b0319163390811782556040519091907f8be0079c531659141344cd1fd0a4f28419497f9722a3daafe3b4186f6b6457e0908290a36105368061005b5f395ff3fe60806040526004361061007e575f3560e01c80637d8820971161004d5780637d882097146101af5780638da5cb5b146101c4578063d0e30db0146101fa578063f2fde38b14610202576100c9565b806327e235e31461010a5780632e1a7d4d1461014857806347734892146101695780636f9fb98a1461019d576100c9565b366100c95760405162461bcd60e51b81526020600482015260166024820152752ab9b2903232b837b9b4ba141490333ab731ba34b7b760511b60448201526064015b60405180910390fd5b60405162461bcd60e51b81526020600482015260166024820152752ab9b2903232b837b9b4ba141490333ab731ba34b7b760511b60448201526064016100c0565b348015610115575f80fd5b5061013561012436600461047c565b60016020525f908152604090205481565b6040519081526020015b60405180910390f35b348015610153575f80fd5b506101676101623660046104a9565b610221565b005b348015610174575f80fd5b5061013561018336600461047c565b6001600160a01b03165f9081526001602052604090205490565b3480156101a8575f80fd5b5047610135565b3480156101ba575f80fd5b5061013560025481565b3480156101cf575f80fd5b505f546101e2906001600160a01b031681565b6040516001600160a01b03909116815260200161013f565b61016761034a565b34801561020d575f80fd5b5061016761021c36600461047c565b6103dc565b805f0361024157604051631f2a200560e01b815260040160405180910390fd5b335f9081526001602052604090205481111561027057604051631e9acf1760e31b815260040160405180910390fd5b335f908152600160205260408120805483929061028e9084906104d4565b925050819055508060025f8282546102a691906104d4565b90915550506040515f90339083908381818185875af1925050503d805f81146102ea576040519150601f19603f3d011682016040523d82523d5f602084013e6102ef565b606091505b5050905080610311576040516312171d8360e31b815260040160405180910390fd5b60405182815233907f7fcf532c15f0a6db0bd6d0e038bea71d30d808c7d98cb3bf7268a95bf5081b659060200160405180910390a25050565b345f0361036a57604051631f2a200560e01b815260040160405180910390fd5b335f90815260016020526040812080543492906103889084906104ed565b925050819055503460025f8282546103a091906104ed565b909155505060405134815233907fe1fffcc4923d04b559f4d29a8bfc6cda04eb5b0d3c460751c2402c5c5cc9109c9060200160405180910390a2565b5f546001600160a01b03163314610406576040516330cd747160e01b815260040160405180910390fd5b6001600160a01b03811661042d5760405163d92e233d60e01b815260040160405180910390fd5b5f80546001600160a01b038381166001600160a01b0319831681178455604051919092169283917f8be0079c531659141344cd1fd0a4f28419497f9722a3daafe3b4186f6b6457e09190a35050565b5f6020828403121561048c575f80fd5b81356001600160a01b03811681146104a2575f80fd5b9392505050565b5f602082840312156104b9575f80fd5b5035919050565b634e487b7160e01b5f52601160045260245ffd5b818103818111156104e7576104e76104c0565b92915050565b808201808211156104e7576104e76104c056fea2646970667358221220e19c7a24e7ac26fa1baf9759d4490ee253027f010bed8b18481aa252273ba07664736f6c63430008140033","linkReferences":{}},"methodIdentifiers":{"balances(address)":"27e235e3","deposit()":"d0e30db0","getContractBalance()":"6f9fb98a","getUserBalance(address)":"47734892","owner()":"8da5cb5b","totalDeposits()":"7d882097","transferOwnership(address)":"f2fde38b","withdraw(uint256)":"2e1a7d4d"},"id":0}